:100000000C94CD000C94F5000C94F5000C94F500C4
:100010000C94F5000C94F5000C94F5000C94F5008C
:100020000C94F5000C94F5000C945B050C94CA0537
:100030000C94F5000C94F5000C94F5000C94F5006C
:100040000C94F5000C94F5000C94F5000C94F5005C
:100050000C94F5000C94F5000C94F5000C9411052B
:100060000C94F5000C94F5000C94F5000C94F5003C
:100070000C94F5000C94F5000C94F5000C94F5002C
:100080000C94F5000C94F5000C94F5000C94F5001C
:100090000C94F5000C94F5000C94F5000C94F5000C
:1000A0000C94F5000C94F5000C94F500080B00027C
:1000B0000202000009040000010202000005240001
:1000C0001001052401010104240206052406000193
:1000D0000705810310004009040100020A00000026
:1000E00007050202400000070583024000000403E8
:1000F000090412010002EF02014041233780000190
:100100000102030141726475696E6F204C4C43001B
:1001100041726475696E6F204D6963726F000000F3
:100120000000240027002A002D00300000000000FD
:10013000250028002B002E003100040404040403D1
:100140000405020202020403020202020606060677
:10015000060604040202020404040802011040809E
:10016000401020408040800802040180402010029E
:1001700001108010204040200000000200090F0004
:1001800000030401000C000000000000000000005B
:100190000000000000000000960C11241FBECFEFED
:1001A000DAE0DEBFCDBF11E0A0E0B1E0E6E6F9E1C4
:1001B00002C005900D92A033B107D9F722E0A0E369
:1001C000B1E001C01D92AF3BB207E1F710E0CDEC0A
:1001D000D0E004C02197FE010E94AB0CCC3CD107BB
:1001E000C9F70E94FC070C94B10C0C940000FC01B0
:1001F00080916E02882311F13FB7F89482E08093DA
:10020000E9002091F200822F90E01816190614F4EC
:1002100081E090E0882339F0289A44E640936D020B
:100220004091F1004083222339F02091F200211106
:1002300003C02BE62093E8003FBF08958FEF9FEFA8
:1002400008952FB7F89483E08093E9009091E80037
:10025000892F807295FF04C09091F20080E4891B81
:100260002FBF08958091650281110DC082E08093B7
:10027000610284E080936202109264021092630231
:1002800081E08093650281E692E00895282F30E0B6
:10029000F901E858FE4F9491F901E75AFE4F849115
:1002A000265C3E4FF9012491222309F430C09923A2
:1002B000E9F091509F30D0F4E92FF0E0EE59FE4F75
:1002C0000C94AB0C90019401710188018C017601B2
:1002D0007601760197019D01A101A501AB0176018F
:1002E000AF01909180009F7790938000E22FF0E023
:1002F000EE0FFF1FE45DFE4FA591B4919FB7F894F8
:10030000EC91611132C080958E238C939FBF08952C
:10031000909180009F7DE8CF90918000977FE4CFFF
:1003200094B59F7794BDE2CF94B59F7DFBCF90911C
:1003300090009F7790939000D9CF909190009F7DEF
:10034000F9CF90919000977FF5CF9091C0009F7763
:100350009093C000CBCF9091C0009F7DF9CF90913A
:10036000C200977F9093C200C1CF8E2BCECFCF9388
:10037000DF9390E0FC01E75AFE4F2491865C9E4F8C
:10038000FC0184918823D1F090E0880F991FFC0133
:10039000E25EFE4FA591B491FC01E45DFE4FC59174
:1003A000D49161110EC09FB7F8948C91E22FE09523
:1003B0008E238C932881E223E8839FBFDF91CF9126
:1003C00008958FB7F894EC91E22BEC938FBFF6CFA2
:1003D0003FB7F89480915D0290915E02A0915F0218
:1003E000B091600226B5A89B05C02F3F19F0019679
:1003F000A11DB11D3FBFBA2FA92F982F8827BC017F
:10040000CD01620F711D811D911D42E0660F771FA6
:10041000881F991F4A95D1F708958F929F92AF92A6
:10042000BF92CF92DF92EF92FF924B015C010E944C
:10043000E8016B017C010E94E8016C197D098E09BD
:100440009F09683E734081059105A8F321E0821A57
:100450009108A108B10888EEC80E83E0D81EE11CFF
:10046000F11C81149104A104B10429F7FF90EF90CD
:10047000DF90CF90BF90AF909F908F9008951F9383
:10048000CF93DF93182FC3E0D0E061E0812F0E946B
:1004900046016EE170E080E090E00E940D0260E0B5
:1004A000812F0E9446016EE170E080E090E00E94A2
:1004B0000D02219751F7DF91CF911F91089540913F
:1004C00032015091330120913001309131014217B6
:1004D0005307B4F49091E8009570E1F39091E8002F
:1004E00092FD19C08093F100809132019091330107
:1004F00001968F739927892B19F48EEF8093E8006A
:100500008091320190913301019690933301809351
:10051000320181E0089580E00895EF92FF920F93F9
:100520001F93CF93DF93F82E192FE62E042F81E02F
:10053000860F880F0E945F0283E00E945F02CF2D2A
:10054000D12FEC0EFD2EF11CCE15DF05B9F007FF03
:1005500013C0FE0184910E945F02182F80E00E9468
:100560005F02812321968111EFCFDF91CF911F91FF
:100570000F91FF90EF9008958881EDCF81E0F5CF46
:10058000DF92EF92FF920F931F93CF93DF93D82EBA
:100590008A01EB017B01E40EF51ECE15DF0559F053
:1005A000D7FE12C0FE0184910E945F022196811144
:1005B000F4CF0FEF1FEFC801DF91CF911F910F9183
:1005C000FF90EF90DF9008958881EECF0F931F93F7
:1005D000CF93DF931F92CDB7DEB782E0898342E4E9
:1005E00050E06CEA70E080E80E94C0020E94320194
:1005F000DC0112960D911C910115110589F0D801AD
:10060000ED91FC910280F381E02DBE016F5F7F4F81
:10061000C801099597FD04C0F80100851185ECCF4C
:1006200089810F90DF91CF911F910F9108956150B3
:1006300030F02091F100FC0120830196F8CF289A38
:1006400084E680936D0208958F929F92AF92BF923D
:10065000CF92DF92EF92FF920F931F93CF93DF938E
:100660006C017B018A0180910B01882309F45CC035
:1006700080916E02882309F457C08091360180FF73
:1006800005C08091E00082608093E000E801B12C19
:100690008AEFA82E93E0892E2AE3922E209711F458
:1006A000BB20D9F10E94210181110AC0AA94AA207D
:1006B000D9F161E070E080E090E00E940D02EECFA1
:1006C0008C171D0611F00CF08C2F9FB7F8948092B8
:1006D000E9002091E80025FD02C09FBFDFCF282F51
:1006E00030E0C21BD30BF701815020F041914093C1
:1006F000F100FACFE20EF31EBB2021F09092E80049
:10070000B12CEBCF8091E80085FDE7CF9092E80017
:10071000BB24B394209709F3F3CF5D9A84E68093CA
:100720003501101611063CF081E090E0F60193834C
:10073000828310E000E0C801DF91CF911F910F91FB
:10074000FF90EF90DF90CF90BF90AF909F908F90F1
:100750000895CF93DF931F92CDB7DEB76983DC0195
:10076000ED91FC910280F381E02D41E050E0BE016B
:100770006F5F7F4F09950F90DF91CF910895682F9C
:100780008FE692E00C94A90383E08093E9008091C6
:10079000F200882319F08AE38093E80008950E940C
:1007A000210190E00895CF93DF931F92CDB7DEB77C
:1007B000FC018485958597FD08C02FEF3FEF3587B5
:1007C00024870F90DF91CF910895CE0101960E946A
:1007D000F700019719F4898190E0F3CF8FEF9FEF35
:1007E000F0CF0F931F93CF93DF931F92CDB7DEB758
:1007F0008C01FC018485958597FF0BC0CE01019685
:100800000E94F700019771F4898190E0F8019587C3
:100810008487F801848595850F90DF91CF911F9192
:100820000F9108958FEF9FEFF1CFFC01848595859F
:1008300097FD0BC09FB7F89482E08093E900809108
:10084000F2009FBF90E0019608959FB7F89482E070
:100850008093E9008091F2009FBF90E0089580911D
:100860005402909155020196909355028093540240
:1008700085E10C94BF03209147013091480180919C
:100880005202909153022032310511F4807F089575
:100890002034310511F4807E08952038310511F49B
:1008A000807C08952115314009F4807808958FE601
:1008B00092E00E941504892BD1F38FE692E00E940A
:1008C000D3030895CF93C82F0E945704803251F468
:1008D00084E10E94BF038C2F0E94BF0380E1CF916F
:1008E0000C94BF038091540290915502019690930D
:1008F00055028093540285E1F2CF0E945704803262
:1009000031F484E10E94BF0380E10C94BF03809125
:10091000540290915502019690935502809354028F
:1009200085E1F3CF0F931F93CF93DF938C01CFE437
:10093000D1E0CE018F5491408017910724F40E949A
:1009400057048993F6CFDF91CF911F910F910895AE
:100950008EBD00000DB407FEFDCF8EB508951F9328
:10096000CF93DF93162FD42FC22F0E94A804812F7C
:100970000E94A8048D2F0E94A8048C2FDF91CF9194
:100980001F910C94A804EF92FF920F931F93CF93A3
:10099000DF93EC018B01CB010E94920460E087E0C1
:1009A0000E9446018FE4E82E81E0F82E0C0F1D1FF7
:1009B000C017D10781F0F70121917F014C2F6D2FD6
:1009C00080EC0E94AF046DE270E080E090E00E9455
:1009D0000D022196EDCF61E087E00E94460180E1A3
:1009E000DF91CF911F910F91FF90EF900895CF93DA
:1009F000DF93D82FC92F60E087E00E94460120E0F6
:100A00004D2F6C2F8CE40E94AF046EE170E080E00B
:100A100090E00E940D0261E087E0DF91CF910C949D
:100A200046011F920F920FB60F9211242F933F93FE
:100A30008F939F93AF93BF938091590290915A02E5
:100A4000A0915B02B0915C023091580223E0230F29
:100A50002D3758F50196A11DB11D209358028093A2
:100A6000590290935A02A0935B02B0935C0280916A
:100A70005D0290915E02A0915F02B09160020196CA
:100A8000A11DB11D80935D0290935E02A0935F0251
:100A9000B0936002BF91AF919F918F913F912F9141
:100AA0000F900FBE0F901F90189526E8230F029607
:100AB000A11DB11DD2CF1F920F920FB60F9211241C
:100AC0008F939F938091E1009091E100937F9093A9
:100AD000E10083FF0FC01092E90091E09093EB00DA
:100AE0001092EC0092E39093ED0010926E0298E069
:100AF0009093F00082FF22C093E09093E9009091E0
:100B0000F200992319F09AE39093E800909135014F
:100B1000992341F0909135019150909335019111B5
:100B200001C05D9890916D02992341F090916D0202
:100B3000915090936D02911101C0289884FF18C0C4
:100B40008091E2008E7E81608093E2008091E100DE
:100B50008F7E8093E100809136018E7E806180934C
:100B600036019F918F910F900FBE0F901F90189597
:100B700080FFF7CF8091E2008E7E80618093E2005B
:100B80008091E1008E7E8093E100809136018E7E1F
:100B90008160E5CF1F920F920FB60F921124CF9272
:100BA000DF92EF92FF920F931F932F933F934F93F8
:100BB0005F936F937F938F939F93AF93BF93EF93C5
:100BC000FF93CF93DF93CDB7DEB76C97DEBFCDBF7A
:100BD0001092E9008091E80083FF25C068E0CE0113
:100BE00045960E94170382EF8093E8008D8987FF66
:100BF00039C09091E80090FFFCCF982F907609F0D3
:100C000034C19E894F89588D2F89F88C911131C03C
:100C1000803861F5809137018093F1001092F100E6
:100C20008EEF8093E8006C960FB6F894DEBF0FBE8F
:100C3000CDBFDF91CF91FF91EF91BF91AF919F9188
:100C40008F917F916F915F914F913F912F911F9164
:100C50000F91FF90EF90DF90CF900F900FBE0F900D
:100C60001F9018959EEF9093E800C7CF1092F10067
:100C7000D5CF913059F48111D3CF4130510581F650
:100C8000809137018D7F80933701CACF933049F42B
:100C90008111C6CF4130510519F68091370182602C
:100CA000F2CF953041F48091E80080FFFCCF2068BE
:100CB0002093E300B5CF963009F0A9C00B8D1C8DB1
:100CC00022E01092E9001092330110923201F212E8
:100CD0002EC010923101109230010E94E6021F8254
:100CE00099E09983FA8291E09E8390EA98879AEF3F
:100CF00099872091320130913301275F3F4F3C8328
:100D00002B838D831092E9001092330110923201EF
:100D1000109331010093300149E050E0BE016F5F54
:100D20007F4F80E00E94C0020E94E60279CF1093BC
:100D30003101009330010E943201DC0112960D91C5
:100D40001C910115110509F451C1D801ED91FC91D7
:100D50000480F581E02DBE016B5E7F4FC8010995CF
:100D6000009709F03EC1F80100851185EACFF3E054
:100D7000FF120EC08F89882309F440C0823061F4CD
:100D800040E86DE080E191E00E948D02811148CF42
:100D900081E28093EB0047CF813029F440E86BE09B
:100DA00084E091E0F1CF833099F70E943201DC01B9
:100DB0001296ED90FC908E010F5F1F4F6801E114B9
:100DC000F10479F0D701ED91FC910680F781E02DD7
:100DD000B801C7010995080F111DF701E084F184DE
:100DE000EECFD8011C92F60101900020E9F731976F
:100DF000BF016C197D0940E0C601C6CF6EEE70E000
:100E0000FB01449150E080E80E94C00209CF973076
:100E100009F4BECF983021F481E08093F10000CF37
:100E2000993009F0FDCE837009F0B2CFE1E2F1E034
:100E300081E031E096E32191222371F08093E90073
:100E40003093EB00DF0111972C912093EC009093ED
:100E5000ED008F5F873079F78EE78093EA0010927C
:100E6000EA008F8980936E02DBCE8B8D9C8D109271
:100E7000E900109233011092320190933101809376
:100E80003001898D811192C08E899D89913A49F4F2
:100E9000813209F07DCF47E050E064E071E080E00E
:100EA000B3CF913209F074CF833269F48F89988D72
:100EB000B0E0A0E08093000190930101A0930201B3
:100EC000B0930301ADCE803269F48091E80082FFD7
:100ED000FCCF67E084E091E00E9417038BEF8093E2
:100EE000E8009ECE823209F09BCE8F8980930B0161
:100EF000EEEFFFE7859194918B3F9C4D51F1E0E03F
:100F0000F8E08091040190910501A0910601B09153
:100F10000701803B9440A105B105F1F480910B01DC
:100F200080FD1AC0EE3F8AE0F80789F587E797E76A
:100F300091838083809160008093340188E19BE0FD
:100F40000FB6F894A895809360000FBE9093600050
:100F500067CEEEEFFAE0D5CF808191818737974752
:100F600009F05ECEA8958091600088618093600052
:100F70008091340180936000EE3F2AE0F20789F00F
:100F80008091FE0A9091FF0A9183808349CE8081EF
:100F900091818737980751F29093FF0A8093FE0A58
:100FA000C5CF1092FF0A1092FE0A3ACE0E9432017B
:100FB000DC0112960D911C910115110509F4E8CE82
:100FC000D801ED91FC910190F081E02DBE016B5EA6
:100FD0007F4FC8010995811123CEF8010085118545
:100FE000EBCF181619060CF41BCED2CEF1E0FF128F
:100FF000BECE62EF70E004CF789484B5826084BD89
:1010000084B5816084BD85B5826085BD85B581600C
:1010100085BD80916E00816080936E00109281008A
:101020008091810082608093810080918100816045
:101030008093810080918000816080938000809106
:1010400091008260809391008091910081608093F3
:101050009100809190008160809390008091C10008
:1010600084608093C1008091C10082608093C10040
:101070008091C10081608093C1008091C300816034
:101080008093C3008091C00082608093C0008091F3
:10109000C20081608093C20080917A008460809356
:1010A0007A0080917A00826080937A0080917A0041
:1010B000816080937A0080917A00806880937A00C2
:1010C00010926E0210923701109236018091D70073
:1010D00081608093D70080EA8093D80089B58061D1
:1010E00089BD89B5826089BD09B400FEFDCF61E08C
:1010F00070E080E090E00E940D028091D8008F7C2B
:1011000080618093D8008091E000807F8093E00030
:101110008091E1008E7E8093E1008DE08093E2007B
:10112000559A209A5D9828988FEF9FEF90937C02B4
:1011300080937B0261E087E00E94B70187E090E046
:101140000E943F0261E088E00E94B70188E090E0E1
:101150000E943F0261E089E00E94B70189E090E0CF
:101160000E943F020BE8A02EBB24B3948BE4282EF0
:1011700081E0382E9AE6492E91E0592E20E0622E29
:1011800020E0722E88248394912C809156029091B5
:10119000570261E0892B09F460E087E00E94460174
:1011A000809154029091550261E0892B09F460E02E
:1011B00088E00E9446012FB7F894809159029091DF
:1011C0005A02A0915B02B0915C022FBF409138019E
:1011D0005091390160913A0170913B018C019D0160
:1011E000041B150B260B370BB901A801483251051A
:1011F0006105710518F18093380190933901A0932E
:101200003A01B0933B01C0910D0180910C01C13CAA
:1012100020F0819580930C0102C0C032D0F3809100
:101220000C01C80FC0930D0161E089E00E94B70175
:10123000C1112BC060E089E00E9446018FE692E078
:101240000E941504892B09F4A2C20E94570481351B
:1012500009F40CC308F036C1813409F4C0C108F0A8
:10126000A5C0803309F4A2C1813309F4A6C180323C
:1012700009F04CC3809154029091550201969093CD
:1012800055028093540285E177C2CF3F11F461E0AB
:10129000D2CFE1E8F1E08491EFEFE80FEF3008F012
:1012A00082C0F0E0EA5AF64F0C94AB0C65096A096B
:1012B0006F097A098509D309D309D30990099B09D4
:1012C000A609B109BE09D309C60984B5806884BDE1
:1012D000C7BDB4CF84B5806284BDC8BDAFCF809197
:1012E0008000806880938000D0E0D0938900C09314
:1012F0008800A4CF80918000806280938000D0E03D
:10130000D0938B00C0938A0099CF80918000886031
:1013100080938000D0E0D0938D00C0938C008ECF5E
:1013200080919000806880939000D0E0D0939900E5
:10133000C093980083CF809190008062809390004A
:10134000D0E0D0939B00C0939A0078CF809190001A
:10135000886080939000D0E0D0939D00C0939C0063
:101360006DCF8091C00080688093C0008091C000E4
:101370008F7B8093C000C093CF0060CF8091C0006E
:1013800080628093C000C093D00058CF8091C2008B
:1013900088608093C2008091C2008B7F8093C200DE
:1013A000C093D2004BCFC7FD72CF44CF853409F430
:1013B0002DC1803509F42FC1823409F0A7C284E120
:1013C00090E00E94920420914F0120933C01809173
:1013D000500180933D018091510180933E018091A5
:1013E000520180933F01809153018093400180918D
:1013F0005401809341018091550180934201809175
:10140000560180934301809157018093440180915C
:10141000590190E0982F882730915A01830F911D30
:10142000909346018093450180915B0190E0982F55
:10143000882730915C01830F911D90934801809320
:10144000470180915D0190E0982F882730915E01DF
:10145000830F911D90934A018093490180915F0110
:1014600090E0B0E0A0E0BA2FA92F982F8827309104
:101470006001830F911DA11DB11DDC0199278827F3
:101480004091610150E0542F4427052E000C660B5B
:10149000770B840F951FA61FB71F30916201830F32
:1014A000911DA11DB11D80934B0190934C01A09300
:1014B0004D01B0934E0181E0203E08F480E080931E
:1014C000510278C0813609F422C1C0F4863509F48E
:1014D000BEC1803609F419C1853509F017C20E94D2
:1014E0005704C82F0E94570490E0982F88278C0F2C
:1014F000911D90935302809352025CC0843709F48B
:101500004DC1853709F4E1C1843609F0FFC10E945D
:101510005704C82FD0E0DC2FCC270E945704C80FF7
:10152000D11D0E945704863409F0F8C0CE010E94F4
:1015300092040E945704803209F09CCE84E10E94FC
:10154000BF030E943B046C013FE4E32E31E0F32E25
:10155000C7018F5491408C179D070CF0DBC00E948F
:101560003B048C159D0531F0C6010E94F7040E94D2
:101570003B046C010091520210915302F70120814B
:10158000402F612F80E40E94AF04F7012181402F9A
:10159000612F88E40E94AF040F5F1F4F1093530226
:1015A00000935202F2E0EF0EF11CD2CF10925502DE
:1015B000109254020E947D04EAC00E9457048032B7
:1015C00009F058CE84E10E94BF0347E050E067E293
:1015D00071E08FE692E00E94240380E1CDC00E947A
:1015E0005704813879F020F4803841F080E007C05A
:1015F000823851F08339D1F783E501C082E00E943F
:101600006204C5C081E0FBCF82E1F9CF85E090E0C4
:101610000E949204CFCF8091560290915702892B5D
:1016200049F66091510285E00E94460161E085E043
:101630000E94B701CFB7F89480915002811125C064
:10164000F1018491F2019491E82FF0E0EE0FFF1F79
:10165000E25EFE4FA591B4918C91982321F461E054
:1016600081E10E94460161E081E10E94B7018CB5F1
:1016700080618CBD8CB580648CBD61E08FE00E9480
:10168000B70161E080E10E94B701809150028F5F55
:1016900080935002CFBF80914F02882351F08FB7C3
:1016A000F89490914F02913021F49DB39DB39DBB6E
:1016B0008FBF83E58CBD1DBC60E08FE00E944601BA
:1016C00064E170E080E090E00E940D02C091510260
:1016D00061E06C2785E00E944601C5010197F1F7A2
:1016E0006C2F85E00E94460162E370E080E090E0AC
:1016F0000E940D0220E040E063E58CEA0E94AF0406
:10170000909257028092560255CF0E9457040E9431
:10171000570450CFC6010E94F7045FCF853409F00B
:1017200094C08091490190914A018C179D0790F0D7
:101730000091520210915302000F111FC132D105C6
:10174000F0F060E270E0C8010E94C304005E1F4F29
:10175000A097F4CF809154029091550201969093F6
:10176000550280935402C1E10E945704803269F40B
:1017700084E10E94BF038C2F0E94BF0308C0BE01FA
:10178000C8010E94C304C0E1EFCF0E942F0461147E
:10179000710409F4FACC0E940000F7CC0E945704AF
:1017A000082F0E945704D82F0E945704C82F0E9468
:1017B0005704803219F00E942F04E9CF10E0102F57
:1017C00000270D0F111D84E10E94BF03C63429F5C7
:1017D000D0E0C0E0C017D1070CF0FFCE409152021C
:1017E0006091530220E080E20E94AF040E94BF0398
:1017F000409152026091530220E088E20E94AF04BF
:101800000E94BF03809152029091530201969093DF
:101810005302809352022296DDCFC534B1F4C091B9
:101820005202D0915302CC0FDD1F0C0F1D1F0C175D
:101830001D0709F4D2CE2FEF4C2F6D2F80EA0E94A6
:10184000AF040E94BF032196F2CF81E195CF84E0DF
:1018500090E00E94920420915201409151016091C8
:10186000500180914F010E94AF04C9CE10925502E1
:10187000109254029FB7F89480915002882319F077
:1018800081508093500280915002811105C08CB527
:101890008F7B8CBD10924F029FBF60E080E10E9461
:1018A000B70160E08FE00E94B7016091510281E0D2
:1018B000682785E00E94460160E085E00E94B7014C
:1018C000109257021092560275CE0E945704803231
:1018D00009F0D0CC84E10E94BF0320E040E060E04A
:1018E00080E30E94AF040E94BF0320E041E060E07B
:1018F00080E30E94AF040E94BF0320E042E060E06A
:1019000080E30E94AF040E94BF0367CE809154021F
:1019100090915502019690935502809354020E9433
:101920005704803209F0AFCC82E126CFEFE6F2E037
:101930001382128288EE93E0A0E0B0E08483958366
:10194000A683B78382E191E0918380838FEF9FEF3D
:10195000958784870895EE0FFF1F0590F491E02D81
:061960000994F894FFCF8A
:10196600FFFFFFFF00E1000000000000088000000C
:101976000000A9032403CF03C4031504D303F10312
:1019860000C180810000004156522049535000009A
:00000001FF
