:1070000055C000006EC000006CC000006AC00000E7
:1070100068C0000066C0000064C0000062C00000DC
:1070200060C000005EC000009CC400005AC00000A8
:1070300058C0000056C0000054C0000052C00000FC
:1070400050C00000DBC000004CC000004AC000007F
:1070500048C0000046C0000044C0000042C000001C
:1070600040C000003EC000003CC000003AC000002C
:1070700038C0000036C0000034C0000032C000003C
:1070800030C000002EC000002CC000002AC000004C
:1070900028C0000026C0000024C0000022C000005C
:1070A00020C000001EC000001CC0000011241FBE34
:1070B000CFEFDAE0DEBFCDBF11E0A0E0B1E0E0EB62
:1070C000FEE702C005900D92AE3AB107D9F721E074
:1070D000AEEAB1E001C01D92A43CB207E1F744D38F
:1070E000A7C68ECF84E08093E9008091E80085FFF9
:1070F00003C08091F10008958091E8008B77809320
:10710000E8008091E80082FDF0CF8EB38111F9CFC5
:10711000089593E09093E9009091E80095FF09C0ED
:107120008093F1005D9884E68093B4011092B501DC
:1071300008959091E8009E779093E8009091E80080
:1071400090FDEECF9EB39111F9CF0895F89410926F
:107150006F0010928100109285001092840081E0EF
:1071600085BF15BE47985D9A289A0C940000089533
:107170002091AE013091AF012F5F3F4F2093AE01C0
:107180003093AF01832F37FF02C08EEF831B880F30
:10719000821710F447980895479A089584B7877F17
:1071A00084BF0FB6F894A8958091600088618093A1
:1071B0006000109260000FBE80E090E80FB6F89477
:1071C00090936100809361000FBE81E085BF82E0F3
:1071D00085BF3F9A209A559AE1E6F0E090831082AD
:1071E00047985D9A289A109289009AEF90938800A8
:1071F00080936F0083E0809381009BC31F921FB632
:107200001F9211242F938F939F93EF93FF931092CC
:107210008500109284008091B4019091B50100978F
:1072200041F001978093B4019093B501892B09F443
:107230005D9A8091B2019091B301009741F001975E
:107240008093B2019093B301892B09F4289AE0E06E
:10725000F0E085919591019649F08091B00190916F
:10726000B10101968093B0019093B101FF91EF912C
:107270009F918F912F911F901FBE1F90189542E0F4
:1072800061EC82E0EDD242E161E883E0E9D242E1E3
:1072900060E884E0E5C28091BB01982F9F7791322E
:1072A000B9F49091BC019032A1F0913289F4813A05
:1072B00079F48091E800877F8093E80067E070E0D0
:1072C00083E091E000D48091E8008B778093E80020
:1072D00008958132E9F78091E800877F8093E80084
:1072E00067E070E083E091E047D48091E8008E771A
:1072F000EDCFAF92BF92CF92DF92EF92FF920F93BA
:107300001F93CF93DF9300D000D000D0CDB7DEB76E
:1073100084E08093E9008091E80082FF14C22898FD
:1073200084E68093B2011092B301DCDE082F8B312A
:1073300009F44BC0EFEBE80FE43308F0A5C0F0E030
:10734000E65EF04C59C58CE49DE18093B0019093CA
:10735000B10107B600FCFDCFF999FECF81E1809322
:107360005700E8958DE0D5DE30C0BCDEFBCF84E46D
:10737000D0DE80E0F8CF89E5F6CFB4DE8983B2DED7
:107380009981392F330F90E0880F991F932BA92FE4
:10739000AA0FAA0BBA2F8093B6019093B701A093BE
:1073A000B801B093B901DECF83E5DDCFA5EAB1E046
:1073B000A983BA83E981FA818191E983FA83A9DEFD
:1073C00029813A812C5A3140A9F783E08093E90062
:1073D0009091E8008091E8008E778093E80095FF17
:1073E000A5C18091E80080FFABC184E08093E900F3
:1073F0008091E8008B778093E800A5C181E389DE66
:1074000080E3B1CF87E885DE85E983DE8EE1ABCF0F
:10741000E0E0F0E083E095E087BFE89507B600FC88
:10742000FDCF97BFE89507B600FCFDCFE058FF4FB2
:10743000E115A0E7FA0781F795CF89E0E1E0F0E0F8
:107440008093570084918FCF89E0E0E0F0E0F8CF9F
:1074500089E0E3E0F0E0F4CF89E0E2E0F0E0F0CFB3
:1074600089E557DE80E055DE80E87DCF1092B001DF
:107470001092B10137DEE82E35DE898333DE182F16
:107480008BEB810F823010F08FE36DCFE981ED83BC
:10749000EE8210926F00073609F049C081E18093B7
:1074A0005700E895B12C01E0AD81BE81AB2B21F4F2
:1074B00082E080936F0089CF2D813E812150310978
:1074C0002D833E83C090B601D090B701E090B80103
:1074D000F090B9011634A9F4F601EB29849119DE74
:1074E000B11469F032E0C30ED11CE11CF11CC09252
:1074F000B601D092B701E092B801F092B901B0267E
:10750000D3CFC601D701B695A795979587957AD41D
:1075100000DE82E0C80ED11CE11CF11CC092B60155
:10752000D092B701E092B801F092B901BDCF80913D
:10753000B6019091B701A091B801B091B9018983CA
:107540009A83AB83BC83F12C163459F483E0E98130
:10755000FA8187BFE89587B780FBFF24F0F880FDAC
:10756000FACFE12C01E029C02D813E812150310963
:107570002D833E831634A9F5E11481F1A090B60164
:10758000B090B701C090B801D090B901ABDDAF2D7C
:10759000B82FCD01F5010C0107BFE8951124C501F5
:1075A000D6010296A11DB11D8093B6019093B7013B
:1075B000A093B801B093B901E0262D813E81232B21
:1075C00099F6163441F485E0E981FA8187BFE895A0
:1075D00007B600FCFDCF8DE09CDD6ACF83DDF82E81
:1075E000EBCF80DD682F8091B6019091B701A0911B
:1075F000B801B091B901B695A795979587950AD42A
:107600008091B6019091B701A091B801B091B901F4
:107610000296A11DB11D8093B6019093B701A0936E
:10762000B801B093B901C9CF2091B6013091B7012B
:1076300029833A8357DD90E021E0E981FA810C014A
:1076400027BFE89511248ECEC090B601D090B70127
:10765000E090B801F090B90145DDF601E16090E0FD
:1076600021E00C0127BFE8951124F2E0CF0ED11CD8
:10767000E11CF11CC092B601D092B701E092B801B2
:10768000F092B9016FCEE091B601F091B70185E0BB
:1076900087BFE89507B600FCFDCF64CEE091B60148
:1076A000F091B7012591359129833A838A8131DDA3
:1076B000898159CE17DD682F8091B6019091B7016D
:1076C000A091B801B091B901B695A7959795879506
:1076D000A1D38091B6019091B701A091B801B0916A
:1076E000B9010296A11DB11D56CEC090B601D09031
:1076F000B701E090B801F090B901C601D701B69585
:10770000A795979587957ED304DD32E0C30ED11CF3
:10771000E11CF11CC092B601D092B701E092B80111
:10772000F092B90152CE8EB3811569F08091E800D4
:1077300080FFF9CF8091E8008E778093E80051CEEA
:107740008EB381114ECE0F900F900F900F900F902F
:107750000F90DF91CF911F910F91FF90EF90DF90ED
:10776000CF90BF90AF90089520910008309101080C
:10777000109201081092000884B714BE0FB6F89456
:10778000A8959091600098619093600010926000BD
:107790000FBE81FD0AC080FF1BC0E0E0F0E0459114
:1077A00055914F3F5F4FA1F0D1DCF8DC78941092F7
:1077B000B0011092B10180910201811119C0809134
:1077C000E00081608093E000C1DC80E090E00895FB
:1077D00083FFEBCF80910001909101018217930705
:1077E00021F3E0E0F0E0859195910196F1F2DCCF94
:1077F00080DDF1D28091B0019091B10181349F413F
:1078000010F010920201B4DCD6CF292F30E0923074
:10781000F1F02330310559F021303105E9F482E1EE
:1078200090E023E931E0FA01208331830895833029
:1078300098F490E0FC01EE0FFF1FE35FFE4F208104
:107840003181865F9E4FFC01808190E0ECCF8EE31A
:1078500090E025E531E0E7CF80E090E020E0E3CF65
:107860008093E900EBEEF0E0808181608083EDEEB3
:1078700010826093EC0040838091EE0087FB8827A4
:1078800080F908958091BB0187FF11C08091E800C5
:1078900082FF06C08091E8008B778093E80008950E
:1078A0008EB38111F3CF08958EB38115E1F38091EA
:1078B000E80080FFF9CF8091E8008E77EECF0F933C
:1078C0001F93CF93DF9340D047D0C8EDD0E088819D
:1078D0008F77888388818068888388818F7D88837B
:1078E00019BC1EBA1092BA0100EE10E0F8018081B6
:1078F0008B7F808388818160888342E060E080E0C4
:10790000AFDFE1EEF0E080818E7F8083E2EE808168
:1079100081608083808188608083E0EE80818E7FBB
:107920008083888180618883DF91CF911F910F913F
:107930000895E7EDF0E08081816080838AE482BF72
:1079400081E08093C301BBCFE8EDF0E080818E7FC2
:1079500080831092E20008951092DA001092E10004
:1079600008951F920F920FB60F9211242F933F93F9
:107970004F935F936F937F938F939F93AF93BF9337
:10798000EF93FF938091DA0080FF17C08091D800B9
:1079900080FF13C08091DA008E7F8093DA0080919F
:1079A000D90080FF86C080E189BD82E189BD09B42C
:1079B00000FEFDCF81E08EBB0DD28091E10080FF03
:1079C00017C08091E20080FF13C08091E2008E7F9B
:1079D0008093E2008091E20080618093E2008091D8
:1079E000D80080628093D80019BC85E08EBBF2D1AC
:1079F0008091E10084FF27C08091E20084FF23C0D2
:107A000080E189BD82E189BD09B400FEFDCF80918E
:107A1000D8008F7D8093D8008091E1008F7E809385
:107A2000E1008091E2008F7E8093E2008091E2008D
:107A300081608093E2008091BA01811509F43DC014
:107A400084E08EBBC7D18091E10083FF21C080918B
:107A5000E20083FF1DC08091E100877F8093E100F9
:107A600082E08EBB1092BA018091E1008E7F8093FC
:107A7000E1008091E2008E7F8093E2008091E2003D
:107A800080618093E20042E060E080E0E9DEA2D124
:107A9000FF91EF91BF91AF919F918F917F916F91E6
:107AA0005F914F913F912F910F900FBE0F901F90BC
:107AB000189519BC1EBA8ED180CF8091E30087FD46
:107AC000BFCF81E0BECFFC012091C1013091C20146
:107AD0002617370720F06115710569F09B0190E0CA
:107AE0002115310571F491110CC08091E80082FFDD
:107AF00037C080E008959091E8009E779093E80069
:107B0000EDCF8EB38115B1F1853081F18091E80020
:107B100083FD2EC08091E80082FDE7CF8091E800D0
:107B200080FFDECF8091F3004091F200582F2115A5
:107B3000310519F04830510558F091E048305105B1
:107B400009F090E04091E8004E774093E800C8CFFC
:107B500081918093F100215031094F5F5F4FE7CF52
:107B60008EB3811539F0853009F0BFCF83E00895D9
:107B700081E0089582E00895FC016115710561F5C9
:107B80008091E8008B778093E8008091E80080FF87
:107B900028C080E00895853011F483E00895809135
:107BA000E80083FD24C08091E80082FF15C0809129
:107BB000F3002091F200382F232B31F08091F10057
:107BC00081936150704099F79091E8009B77909372
:107BD000E80061157105C9F28EB38111DCCF82E036
:107BE00008958EB38115D9F3853079F6D6CF81E02B
:107BF00008950F931F93CF93DF9300D0CDB7DEB7D7
:107C00008BEB91E0FC0101962091F100208321E0B3
:107C1000833C9207B9F73FDB8091E80083FF7EC089
:107C20008091BB019091BC019A3008F077C0E92F98
:107C3000F0E0E25BF04CE0C0823809F06FC0809168
:107C4000BF0187708093E9008091EB001092E900FA
:107C50009091E800977F9093E80085FB882780F952
:107C60008093F1001092F1008091E8008E771EC0A1
:107C7000823009F053C08091BD01811112C0809102
:107C8000BF01877009F44AC08093E9002091EB009E
:107C900020FF07C0933071F48091EB0080628093E5
:107CA000EB001092E9008091E800877F8093E80064
:107CB000E9DD34C09091EB0090619093EB0021E0FE
:107CC00030E0A90101C0440F8A95EAF74093EA0029
:107CD0001092EA008091EB008860E1CF81111EC014
:107CE0000091BD010F771FB7F8948091E800877F5E
:107CF0008093E800C7DD8091E80080FFFCCF809191
:107D0000E3008078802B8093E30080688093E30019
:107D100083E0011101C082E08EBB1FBF8091E800AB
:107D200083FF0AC08091EB0080628093EB0080911A
:107D3000E800877F8093E8000F900F90DF91CF914C
:107D40001F910F9108958058823040F7AE014F5F28
:107D50005F4F6091BF018091BD019091BE0155DDE3
:107D6000BC01892BD9F29091E800977F9093E800AD
:107D700089819A81A8DE8091E8008B778093E80062
:107D8000CDCF803859F68091E800877F8093E80056
:107D90008091BA018093F10067CF8111BFCF90919C
:107DA000BD01923008F0BACF8091E800877F8093C0
:107DB000E8009093BA0166DD8091BA01811521F047
:107DC00084E08EBB5CDAAACF8091E30087FDF8CF18
:107DD00081E0F7CF0895CF938EB3811559F0C0910C
:107DE000E900C7701092E9008091E80083FD01DF8F
:107DF000C093E900CF910895EE0FFF1F0590F49115
:107E0000E02D0994F999FECF92BD81BDF89A99278A
:107E100080B50895262FF999FECF1FBA92BD81BD76
:107E200020BD0FB6F894FA9AF99A0FBE01960895FC
:107E3000F894FFCFBD39363A143B5A3BA339243A64
:107E4000443A443A443A443A443AB239443A283AF1
:107E5000443AB2392C3A4E3BD639B539443AFE3918
:107E6000443A443A443A443A443A443A443A443A22
:107E7000443A443ABB39303A243B753B083A443AD9
:107E8000363A443A443A443A443A443A433B443A10
:107E9000443AD439443A1D3A023AB7391C3E383E86
:107EA0008E3E383E8E3E6E3EA33E8E3EC13ECD3E61
:107EB0007777010000000000000804221851012D0E
:107EC000011301180355006E006B006E006F007700
:107ED000006E00200020002000200000002203553A
:107EE0000053004200200049004F00200062006F54
:107EF00000610072006400200020002000200000CB
:107F0000000403090409023E000201008032090452
:107F100000000102020100052400100104240204F3
:107F20000524060001070582030800FF090401007B
:107F3000020A000000070504021000010705830281
:107F40001000011201100102000008C016E4050132
:0E7F500000020100014341544552494E4100D8
:040000030000700089
:00000001FF
